{
	"_format": "hh-sol-artifact-1",
	"contractName": "Answers",
	"sourceName": "contracts/Answers.sol",
	"abi": [
		{
			"inputs": [
				{
					"internalType": "address",
					"name": "student",
					"type": "address"
				},
				{
					"components": [
						{
							"internalType": "string",
							"name": "question",
							"type": "string"
						},
						{
							"internalType": "bool",
							"name": "isCorrect",
							"type": "bool"
						},
						{
							"internalType": "bool",
							"name": "isBlank",
							"type": "bool"
						}
					],
					"internalType": "struct Answers.Question[]",
					"name": "questions",
					"type": "tuple[]"
				},
				{
					"internalType": "uint256",
					"name": "timeTaken",
					"type": "uint256"
				},
				{
					"internalType": "bool",
					"name": "sus",
					"type": "bool"
				}
			],
			"name": "addFinal",
			"outputs": [],
			"stateMutability": "nonpayable",
			"type": "function"
		},
		{
			"inputs": [
				{
					"internalType": "address",
					"name": "student",
					"type": "address"
				},
				{
					"components": [
						{
							"internalType": "string",
							"name": "question",
							"type": "string"
						},
						{
							"internalType": "bool",
							"name": "isCorrect",
							"type": "bool"
						},
						{
							"internalType": "bool",
							"name": "isBlank",
							"type": "bool"
						}
					],
					"internalType": "struct Answers.Question",
					"name": "question",
					"type": "tuple"
				}
			],
			"name": "addQuestionAttempted",
			"outputs": [],
			"stateMutability": "nonpayable",
			"type": "function"
		},
		{
			"inputs": [
				{
					"internalType": "address",
					"name": "student",
					"type": "address"
				},
				{
					"internalType": "uint256",
					"name": "timeTaken",
					"type": "uint256"
				},
				{
					"internalType": "bool",
					"name": "sus",
					"type": "bool"
				}
			],
			"name": "addTime",
			"outputs": [],
			"stateMutability": "nonpayable",
			"type": "function"
		},
		{
			"inputs": [
				{
					"internalType": "address",
					"name": "student",
					"type": "address"
				}
			],
			"name": "checkStatus",
			"outputs": [
				{
					"internalType": "bool",
					"name": "",
					"type": "bool"
				}
			],
			"stateMutability": "view",
			"type": "function"
		},
		{
			"inputs": [
				{
					"internalType": "address",
					"name": "student",
					"type": "address"
				}
			],
			"name": "noOfQuestions",
			"outputs": [
				{
					"internalType": "uint256",
					"name": "",
					"type": "uint256"
				}
			],
			"stateMutability": "view",
			"type": "function"
		},
		{
			"inputs": [
				{
					"internalType": "address",
					"name": "",
					"type": "address"
				}
			],
			"name": "students",
			"outputs": [
				{
					"internalType": "uint256",
					"name": "score",
					"type": "uint256"
				},
				{
					"internalType": "uint256",
					"name": "blankQuestions",
					"type": "uint256"
				},
				{
					"internalType": "uint256",
					"name": "timeTaken",
					"type": "uint256"
				},
				{
					"internalType": "bool",
					"name": "sus",
					"type": "bool"
				}
			],
			"stateMutability": "view",
			"type": "function"
		},
		{
			"inputs": [
				{
					"internalType": "address",
					"name": "student",
					"type": "address"
				}
			],
			"name": "viewScore",
			"outputs": [
				{
					"internalType": "uint256",
					"name": "",
					"type": "uint256"
				}
			],
			"stateMutability": "view",
			"type": "function"
		}
	],
	"bytecode": "0x608060405234801561001057600080fd5b5061107d806100206000396000f3fe608060405234801561001057600080fd5b506004361061007d5760003560e01c806362b96cf71161005b57806362b96cf7146100ea578063a6c807a914610106578063c6a79f0d14610139578063db230b52146101695761007d565b8063340190ec146100825780633f162c92146100b25780634ba994fa146100ce575b600080fd5b61009c6004803603810190610097919061079c565b610199565b6040516100a991906107e4565b60405180910390f35b6100cc60048036038101906100c79190610861565b6101f1565b005b6100e860048036038101906100e39190610a84565b610295565b005b61010460048036038101906100ff9190610bc6565b610404565b005b610120600480360381019061011b919061079c565b610654565b6040516101309493929190610c58565b60405180910390f35b610153600480360381019061014e919061079c565b610691565b6040516101609190610c9d565b60405180910390f35b610183600480360381019061017e919061079c565b6106df565b6040516101909190610c9d565b60405180910390f35b60008060008373ffffffffffffffffffffffffffffffffffffffff1673ffffffffffffffffffffffffffffffffffffffff16815260200190815260200160002060030160009054906101000a900460ff169050919050565b816000808573ffffffffffffffffffffffffffffffffffffffff1673ffffffffffffffffffffffffffffffffffffffff16815260200190815260200160002060020181905550806000808573ffffffffffffffffffffffffffffffffffffffff1673ffffffffffffffffffffffffffffffffffffffff16815260200190815260200160002060030160006101000a81548160ff021916908315150217905550505050565b80602001516102e5576000808373ffffffffffffffffffffffffffffffffffffffff1673ffffffffffffffffffffffffffffffffffffffff1681526020019081526020016000206000015461033c565b6000808373ffffffffffffffffffffffffffffffffffffffff1673ffffffffffffffffffffffffffffffffffffffff168152602001908152602001600020600001600081548092919061033790610ce7565b919050555b506000808373ffffffffffffffffffffffffffffffffffffffff1673ffffffffffffffffffffffffffffffffffffffff16815260200190815260200160002060040181908060018154018082558091505060019003906000526020600020906002020160009091909190915060008201518160000190816103bd9190610f46565b5060208201518160010160006101000a81548160ff02191690831515021790555060408201518160010160016101000a81548160ff02191690831515021790555050505050565b60005b83518110156105ae57600084828151811061042557610424611018565b5b60200260200101519050806020015161047f576000808773ffffffffffffffffffffffffffffffffffffffff1673ffffffffffffffffffffffffffffffffffffffff168152602001908152602001600020600001546104d6565b6000808773ffffffffffffffffffffffffffffffffffffffff1673ffffffffffffffffffffffffffffffffffffffff16815260200190815260200160002060000160008154809291906104d190610ce7565b919050555b506000808773ffffffffffffffffffffffffffffffffffffffff1673ffffffffffffffffffffffffffffffffffffffff16815260200190815260200160002060040181908060018154018082558091505060019003906000526020600020906002020160009091909190915060008201518160000190816105579190610f46565b5060208201518160010160006101000a81548160ff02191690831515021790555060408201518160010160016101000a81548160ff02191690831515021790555050505080806105a690610ce7565b915050610407565b50816000808673ffffffffffffffffffffffffffffffffffffffff1673ffffffffffffffffffffffffffffffffffffffff16815260200190815260200160002060020181905550806000808673ffffffffffffffffffffffffffffffffffffffff1673ffffffffffffffffffffffffffffffffffffffff16815260200190815260200160002060030160006101000a81548160ff02191690831515021790555050505050565b60006020528060005260406000206000915090508060000154908060010154908060020154908060030160009054906101000a900460ff16905084565b60008060008373ffffffffffffffffffffffffffffffffffffffff1673ffffffffffffffffffffffffffffffffffffffff168152602001908152602001600020600401805490509050919050565b60008060008373ffffffffffffffffffffffffffffffffffffffff1673ffffffffffffffffffffffffffffffffffffffff168152602001908152602001600020600001549050919050565b6000604051905090565b600080fd5b600080fd5b600073ffffffffffffffffffffffffffffffffffffffff82169050919050565b60006107698261073e565b9050919050565b6107798161075e565b811461078457600080fd5b50565b60008135905061079681610770565b92915050565b6000602082840312156107b2576107b1610734565b5b60006107c084828501610787565b91505092915050565b60008115159050919050565b6107de816107c9565b82525050565b60006020820190506107f960008301846107d5565b92915050565b6000819050919050565b610812816107ff565b811461081d57600080fd5b50565b60008135905061082f81610809565b92915050565b61083e816107c9565b811461084957600080fd5b50565b60008135905061085b81610835565b92915050565b60008060006060848603121561087a57610879610734565b5b600061088886828701610787565b935050602061089986828701610820565b92505060406108aa8682870161084c565b9150509250925092565b600080fd5b6000601f19601f8301169050919050565b7f4e487b7100000000000000000000000000000000000000000000000000000000600052604160045260246000fd5b610902826108b9565b810181811067ffffffffffffffff82111715610921576109206108ca565b5b80604052505050565b600061093461072a565b905061094082826108f9565b919050565b600080fd5b600080fd5b600080fd5b600067ffffffffffffffff82111561096f5761096e6108ca565b5b610978826108b9565b9050602081019050919050565b82818337600083830152505050565b60006109a76109a284610954565b61092a565b9050828152602081018484840111156109c3576109c261094f565b5b6109ce848285610985565b509392505050565b600082601f8301126109eb576109ea61094a565b5b81356109fb848260208601610994565b91505092915050565b600060608284031215610a1a57610a196108b4565b5b610a24606061092a565b9050600082013567ffffffffffffffff811115610a4457610a43610945565b5b610a50848285016109d6565b6000830152506020610a648482850161084c565b6020830152506040610a788482850161084c565b60408301525092915050565b60008060408385031215610a9b57610a9a610734565b5b6000610aa985828601610787565b925050602083013567ffffffffffffffff811115610aca57610ac9610739565b5b610ad685828601610a04565b9150509250929050565b600067ffffffffffffffff821115610afb57610afa6108ca565b5b602082029050602081019050919050565b600080fd5b6000610b24610b1f84610ae0565b61092a565b90508083825260208201905060208402830185811115610b4757610b46610b0c565b5b835b81811015610b8e57803567ffffffffffffffff811115610b6c57610b6b61094a565b5b808601610b798982610a04565b85526020850194505050602081019050610b49565b5050509392505050565b600082601f830112610bad57610bac61094a565b5b8135610bbd848260208601610b11565b91505092915050565b60008060008060808587031215610be057610bdf610734565b5b6000610bee87828801610787565b945050602085013567ffffffffffffffff811115610c0f57610c0e610739565b5b610c1b87828801610b98565b9350506040610c2c87828801610820565b9250506060610c3d8782880161084c565b91505092959194509250565b610c52816107ff565b82525050565b6000608082019050610c6d6000830187610c49565b610c7a6020830186610c49565b610c876040830185610c49565b610c9460608301846107d5565b95945050505050565b6000602082019050610cb26000830184610c49565b92915050565b7f4e487b7100000000000000000000000000000000000000000000000000000000600052601160045260246000fd5b6000610cf2826107ff565b91507fffffffffffffffffffffffffffffffffffffffffffffffffffffffffffffffff8203610d2457610d23610cb8565b5b600182019050919050565b600081519050919050565b7f4e487b7100000000000000000000000000000000000000000000000000000000600052602260045260246000fd5b60006002820490506001821680610d8157607f821691505b602082108103610d9457610d93610d3a565b5b50919050565b60008190508160005260206000209050919050565b60006020601f8301049050919050565b600082821b905092915050565b600060088302610dfc7fffffffffffffffffffffffffffffffffffffffffffffffffffffffffffffffff82610dbf565b610e068683610dbf565b95508019841693508086168417925050509392505050565b6000819050919050565b6000610e43610e3e610e39846107ff565b610e1e565b6107ff565b9050919050565b6000819050919050565b610e5d83610e28565b610e71610e6982610e4a565b848454610dcc565b825550505050565b600090565b610e86610e79565b610e91818484610e54565b505050565b5b81811015610eb557610eaa600082610e7e565b600181019050610e97565b5050565b601f821115610efa57610ecb81610d9a565b610ed484610daf565b81016020851015610ee3578190505b610ef7610eef85610daf565b830182610e96565b50505b505050565b600082821c905092915050565b6000610f1d60001984600802610eff565b1980831691505092915050565b6000610f368383610f0c565b9150826002028217905092915050565b610f4f82610d2f565b67ffffffffffffffff811115610f6857610f676108ca565b5b610f728254610d69565b610f7d828285610eb9565b600060209050601f831160018114610fb05760008415610f9e578287015190505b610fa88582610f2a565b865550611010565b601f198416610fbe86610d9a565b60005b82811015610fe657848901518255600182019150602085019450602081019050610fc1565b868310156110035784890151610fff601f891682610f0c565b8355505b6001600288020188555050505b505050505050565b7f4e487b7100000000000000000000000000000000000000000000000000000000600052603260045260246000fdfea2646970667358221220dfc1191deb758d136482375903dc47366f565e4633a192e3c852264ccc0c046e64736f6c63430008110033",
	"linkReferences": {},
	"deployedLinkReferences": {}
}