{
  "_format": "hh-sol-artifact-1",
  "contractName": "Answers",
  "sourceName": "contracts/Answers.sol",
  "abi": [
    {
      "inputs": [
        {
          "internalType": "address",
          "name": "student",
          "type": "address"
        },
        {
          "components": [
            {
              "internalType": "string",
              "name": "question",
              "type": "string"
            },
            {
              "internalType": "bool",
              "name": "isCorrect",
              "type": "bool"
            }
          ],
          "internalType": "struct Answers.Question",
          "name": "question",
          "type": "tuple"
        }
      ],
      "name": "addQuestionAttempted",
      "outputs": [],
      "stateMutability": "nonpayable",
      "type": "function"
    },
    {
      "inputs": [
        {
          "internalType": "address",
          "name": "student",
          "type": "address"
        }
      ],
      "name": "noOfQuestions",
      "outputs": [
        {
          "internalType": "uint256",
          "name": "",
          "type": "uint256"
        }
      ],
      "stateMutability": "view",
      "type": "function"
    },
    {
      "inputs": [
        {
          "internalType": "address",
          "name": "",
          "type": "address"
        }
      ],
      "name": "students",
      "outputs": [
        {
          "internalType": "uint256",
          "name": "score",
          "type": "uint256"
        }
      ],
      "stateMutability": "view",
      "type": "function"
    },
    {
      "inputs": [
        {
          "internalType": "address",
          "name": "student",
          "type": "address"
        }
      ],
      "name": "viewScore",
      "outputs": [
        {
          "internalType": "uint256",
          "name": "",
          "type": "uint256"
        }
      ],
      "stateMutability": "view",
      "type": "function"
    }
  ],
  "bytecode": "0x608060405234801561001057600080fd5b506109bc806100206000396000f3fe608060405234801561001057600080fd5b506004361061004c5760003560e01c80639e9708ad14610051578063a6c807a91461006d578063c6a79f0d1461009d578063db230b52146100cd575b600080fd5b61006b60048036038101906100669190610569565b6100fd565b005b610087600480360381019061008291906105c5565b61024c565b604051610094919061060b565b60405180910390f35b6100b760048036038101906100b291906105c5565b61026a565b6040516100c4919061060b565b60405180910390f35b6100e760048036038101906100e291906105c5565b6102b8565b6040516100f4919061060b565b60405180910390f35b806020015161014d576000808373ffffffffffffffffffffffffffffffffffffffff1673ffffffffffffffffffffffffffffffffffffffff168152602001908152602001600020600001546101a4565b6000808373ffffffffffffffffffffffffffffffffffffffff1673ffffffffffffffffffffffffffffffffffffffff168152602001908152602001600020600001600081548092919061019f90610655565b919050555b506000808373ffffffffffffffffffffffffffffffffffffffff1673ffffffffffffffffffffffffffffffffffffffff168152602001908152602001600020600101819080600181540180825580915050600190039060005260206000209060020201600090919091909150600082015181600001908161022591906108b4565b5060208201518160010160006101000a81548160ff02191690831515021790555050505050565b60006020528060005260406000206000915090508060000154905081565b60008060008373ffffffffffffffffffffffffffffffffffffffff1673ffffffffffffffffffffffffffffffffffffffff168152602001908152602001600020600101805490509050919050565b60008060008373ffffffffffffffffffffffffffffffffffffffff1673ffffffffffffffffffffffffffffffffffffffff168152602001908152602001600020600001549050919050565b6000604051905090565b600080fd5b600080fd5b600073ffffffffffffffffffffffffffffffffffffffff82169050919050565b600061034282610317565b9050919050565b61035281610337565b811461035d57600080fd5b50565b60008135905061036f81610349565b92915050565b600080fd5b6000601f19601f8301169050919050565b7f4e487b7100000000000000000000000000000000000000000000000000000000600052604160045260246000fd5b6103c38261037a565b810181811067ffffffffffffffff821117156103e2576103e161038b565b5b80604052505050565b60006103f5610303565b905061040182826103ba565b919050565b600080fd5b600080fd5b600080fd5b600067ffffffffffffffff8211156104305761042f61038b565b5b6104398261037a565b9050602081019050919050565b82818337600083830152505050565b600061046861046384610415565b6103eb565b90508281526020810184848401111561048457610483610410565b5b61048f848285610446565b509392505050565b600082601f8301126104ac576104ab61040b565b5b81356104bc848260208601610455565b91505092915050565b60008115159050919050565b6104da816104c5565b81146104e557600080fd5b50565b6000813590506104f7816104d1565b92915050565b60006040828403121561051357610512610375565b5b61051d60406103eb565b9050600082013567ffffffffffffffff81111561053d5761053c610406565b5b61054984828501610497565b600083015250602061055d848285016104e8565b60208301525092915050565b600080604083850312156105805761057f61030d565b5b600061058e85828601610360565b925050602083013567ffffffffffffffff8111156105af576105ae610312565b5b6105bb858286016104fd565b9150509250929050565b6000602082840312156105db576105da61030d565b5b60006105e984828501610360565b91505092915050565b6000819050919050565b610605816105f2565b82525050565b600060208201905061062060008301846105fc565b92915050565b7f4e487b7100000000000000000000000000000000000000000000000000000000600052601160045260246000fd5b6000610660826105f2565b91507fffffffffffffffffffffffffffffffffffffffffffffffffffffffffffffffff820361069257610691610626565b5b600182019050919050565b600081519050919050565b7f4e487b7100000000000000000000000000000000000000000000000000000000600052602260045260246000fd5b600060028204905060018216806106ef57607f821691505b602082108103610702576107016106a8565b5b50919050565b60008190508160005260206000209050919050565b60006020601f8301049050919050565b600082821b905092915050565b60006008830261076a7fffffffffffffffffffffffffffffffffffffffffffffffffffffffffffffffff8261072d565b610774868361072d565b95508019841693508086168417925050509392505050565b6000819050919050565b60006107b16107ac6107a7846105f2565b61078c565b6105f2565b9050919050565b6000819050919050565b6107cb83610796565b6107df6107d7826107b8565b84845461073a565b825550505050565b600090565b6107f46107e7565b6107ff8184846107c2565b505050565b5b81811015610823576108186000826107ec565b600181019050610805565b5050565b601f8211156108685761083981610708565b6108428461071d565b81016020851015610851578190505b61086561085d8561071d565b830182610804565b50505b505050565b600082821c905092915050565b600061088b6000198460080261086d565b1980831691505092915050565b60006108a4838361087a565b9150826002028217905092915050565b6108bd8261069d565b67ffffffffffffffff8111156108d6576108d561038b565b5b6108e082546106d7565b6108eb828285610827565b600060209050601f83116001811461091e576000841561090c578287015190505b6109168582610898565b86555061097e565b601f19841661092c86610708565b60005b828110156109545784890151825560018201915060208501945060208101905061092f565b86831015610971578489015161096d601f89168261087a565b8355505b6001600288020188555050505b50505050505056fea264697066735822122041aeaba1872e41a1306c4dbc4a2da4edc272f3757973748762fae850921a759764736f6c63430008110033",
  "linkReferences": {},
  "deployedLinkReferences": {}
}