{
	"_format": "hh-sol-artifact-1",
	"contractName": "Answers",
	"sourceName": "contracts/Answers.sol",
	"abi": [
		{
			"inputs": [
				{
					"internalType": "address",
					"name": "student",
					"type": "address"
				},
				{
					"components": [
						{
							"internalType": "string",
							"name": "question",
							"type": "string"
						},
						{
							"internalType": "bool",
							"name": "isCorrect",
							"type": "bool"
						}
					],
					"internalType": "struct Answers.Question[]",
					"name": "questions",
					"type": "tuple[]"
				},
				{
					"internalType": "uint256",
					"name": "timeTaken",
					"type": "uint256"
				},
				{
					"internalType": "bool",
					"name": "sus",
					"type": "bool"
				}
			],
			"name": "addFinal",
			"outputs": [],
			"stateMutability": "nonpayable",
			"type": "function"
		},
		{
			"inputs": [
				{
					"internalType": "address",
					"name": "student",
					"type": "address"
				},
				{
					"components": [
						{
							"internalType": "string",
							"name": "question",
							"type": "string"
						},
						{
							"internalType": "bool",
							"name": "isCorrect",
							"type": "bool"
						}
					],
					"internalType": "struct Answers.Question",
					"name": "question",
					"type": "tuple"
				}
			],
			"name": "addQuestionAttempted",
			"outputs": [],
			"stateMutability": "nonpayable",
			"type": "function"
		},
		{
			"inputs": [
				{
					"internalType": "address",
					"name": "student",
					"type": "address"
				},
				{
					"internalType": "uint256",
					"name": "timeTaken",
					"type": "uint256"
				},
				{
					"internalType": "bool",
					"name": "sus",
					"type": "bool"
				}
			],
			"name": "addTime",
			"outputs": [],
			"stateMutability": "nonpayable",
			"type": "function"
		},
		{
			"inputs": [
				{
					"internalType": "address",
					"name": "student",
					"type": "address"
				}
			],
			"name": "checkStatus",
			"outputs": [
				{
					"internalType": "bool",
					"name": "",
					"type": "bool"
				}
			],
			"stateMutability": "view",
			"type": "function"
		},
		{
			"inputs": [
				{
					"internalType": "address",
					"name": "student",
					"type": "address"
				}
			],
			"name": "noOfQuestions",
			"outputs": [
				{
					"internalType": "uint256",
					"name": "",
					"type": "uint256"
				}
			],
			"stateMutability": "view",
			"type": "function"
		},
		{
			"inputs": [
				{
					"internalType": "address",
					"name": "",
					"type": "address"
				}
			],
			"name": "students",
			"outputs": [
				{
					"internalType": "uint256",
					"name": "score",
					"type": "uint256"
				},
				{
					"internalType": "uint256",
					"name": "timeTaken",
					"type": "uint256"
				},
				{
					"internalType": "bool",
					"name": "sus",
					"type": "bool"
				}
			],
			"stateMutability": "view",
			"type": "function"
		},
		{
			"inputs": [
				{
					"internalType": "address",
					"name": "student",
					"type": "address"
				}
			],
			"name": "viewScore",
			"outputs": [
				{
					"internalType": "uint256",
					"name": "",
					"type": "uint256"
				}
			],
			"stateMutability": "view",
			"type": "function"
		}
	],
	"bytecode": "0x608060405234801561001057600080fd5b50611014806100206000396000f3fe608060405234801561001057600080fd5b506004361061007d5760003560e01c80639e9708ad1161005b5780639e9708ad146100ea578063a6c807a914610106578063c6a79f0d14610138578063db230b52146101685761007d565b8063340190ec146100825780633f162c92146100b25780636805d0c7146100ce575b600080fd5b61009c60048036038101906100979190610755565b610198565b6040516100a9919061079d565b60405180910390f35b6100cc60048036038101906100c7919061081a565b6101f0565b005b6100e860048036038101906100e39190610b0f565b610294565b005b61010460048036038101906100ff9190610b92565b6104c4565b005b610120600480360381019061011b9190610755565b610613565b60405161012f93929190610bfd565b60405180910390f35b610152600480360381019061014d9190610755565b61064a565b60405161015f9190610c34565b60405180910390f35b610182600480360381019061017d9190610755565b610698565b60405161018f9190610c34565b60405180910390f35b60008060008373ffffffffffffffffffffffffffffffffffffffff1673ffffffffffffffffffffffffffffffffffffffff16815260200190815260200160002060020160009054906101000a900460ff169050919050565b816000808573ffffffffffffffffffffffffffffffffffffffff1673ffffffffffffffffffffffffffffffffffffffff16815260200190815260200160002060010181905550806000808573ffffffffffffffffffffffffffffffffffffffff1673ffffffffffffffffffffffffffffffffffffffff16815260200190815260200160002060020160006101000a81548160ff021916908315150217905550505050565b60005b835181101561041e5760008482815181106102b5576102b4610c4f565b5b60200260200101519050806020015161030f576000808773ffffffffffffffffffffffffffffffffffffffff1673ffffffffffffffffffffffffffffffffffffffff16815260200190815260200160002060000154610366565b6000808773ffffffffffffffffffffffffffffffffffffffff1673ffffffffffffffffffffffffffffffffffffffff168152602001908152602001600020600001600081548092919061036190610cad565b919050555b506000808773ffffffffffffffffffffffffffffffffffffffff1673ffffffffffffffffffffffffffffffffffffffff16815260200190815260200160002060030181908060018154018082558091505060019003906000526020600020906002020160009091909190915060008201518160000190816103e79190610f0c565b5060208201518160010160006101000a81548160ff021916908315150217905550505050808061041690610cad565b915050610297565b50816000808673ffffffffffffffffffffffffffffffffffffffff1673ffffffffffffffffffffffffffffffffffffffff16815260200190815260200160002060010181905550806000808673ffffffffffffffffffffffffffffffffffffffff1673ffffffffffffffffffffffffffffffffffffffff16815260200190815260200160002060020160006101000a81548160ff02191690831515021790555050505050565b8060200151610514576000808373ffffffffffffffffffffffffffffffffffffffff1673ffffffffffffffffffffffffffffffffffffffff1681526020019081526020016000206000015461056b565b6000808373ffffffffffffffffffffffffffffffffffffffff1673ffffffffffffffffffffffffffffffffffffffff168152602001908152602001600020600001600081548092919061056690610cad565b919050555b506000808373ffffffffffffffffffffffffffffffffffffffff1673ffffffffffffffffffffffffffffffffffffffff16815260200190815260200160002060030181908060018154018082558091505060019003906000526020600020906002020160009091909190915060008201518160000190816105ec9190610f0c565b5060208201518160010160006101000a81548160ff02191690831515021790555050505050565b60006020528060005260406000206000915090508060000154908060010154908060020160009054906101000a900460ff16905083565b60008060008373ffffffffffffffffffffffffffffffffffffffff1673ffffffffffffffffffffffffffffffffffffffff168152602001908152602001600020600301805490509050919050565b60008060008373ffffffffffffffffffffffffffffffffffffffff1673ffffffffffffffffffffffffffffffffffffffff168152602001908152602001600020600001549050919050565b6000604051905090565b600080fd5b600080fd5b600073ffffffffffffffffffffffffffffffffffffffff82169050919050565b6000610722826106f7565b9050919050565b61073281610717565b811461073d57600080fd5b50565b60008135905061074f81610729565b92915050565b60006020828403121561076b5761076a6106ed565b5b600061077984828501610740565b91505092915050565b60008115159050919050565b61079781610782565b82525050565b60006020820190506107b2600083018461078e565b92915050565b6000819050919050565b6107cb816107b8565b81146107d657600080fd5b50565b6000813590506107e8816107c2565b92915050565b6107f781610782565b811461080257600080fd5b50565b600081359050610814816107ee565b92915050565b600080600060608486031215610833576108326106ed565b5b600061084186828701610740565b9350506020610852868287016107d9565b925050604061086386828701610805565b9150509250925092565b600080fd5b6000601f19601f8301169050919050565b7f4e487b7100000000000000000000000000000000000000000000000000000000600052604160045260246000fd5b6108bb82610872565b810181811067ffffffffffffffff821117156108da576108d9610883565b5b80604052505050565b60006108ed6106e3565b90506108f982826108b2565b919050565b600067ffffffffffffffff82111561091957610918610883565b5b602082029050602081019050919050565b600080fd5b600080fd5b600080fd5b600080fd5b600067ffffffffffffffff82111561095957610958610883565b5b61096282610872565b9050602081019050919050565b82818337600083830152505050565b600061099161098c8461093e565b6108e3565b9050828152602081018484840111156109ad576109ac610939565b5b6109b884828561096f565b509392505050565b600082601f8301126109d5576109d461086d565b5b81356109e584826020860161097e565b91505092915050565b600060408284031215610a0457610a0361092f565b5b610a0e60406108e3565b9050600082013567ffffffffffffffff811115610a2e57610a2d610934565b5b610a3a848285016109c0565b6000830152506020610a4e84828501610805565b60208301525092915050565b6000610a6d610a68846108fe565b6108e3565b90508083825260208201905060208402830185811115610a9057610a8f61092a565b5b835b81811015610ad757803567ffffffffffffffff811115610ab557610ab461086d565b5b808601610ac289826109ee565b85526020850194505050602081019050610a92565b5050509392505050565b600082601f830112610af657610af561086d565b5b8135610b06848260208601610a5a565b91505092915050565b60008060008060808587031215610b2957610b286106ed565b5b6000610b3787828801610740565b945050602085013567ffffffffffffffff811115610b5857610b576106f2565b5b610b6487828801610ae1565b9350506040610b75878288016107d9565b9250506060610b8687828801610805565b91505092959194509250565b60008060408385031215610ba957610ba86106ed565b5b6000610bb785828601610740565b925050602083013567ffffffffffffffff811115610bd857610bd76106f2565b5b610be4858286016109ee565b9150509250929050565b610bf7816107b8565b82525050565b6000606082019050610c126000830186610bee565b610c1f6020830185610bee565b610c2c604083018461078e565b949350505050565b6000602082019050610c496000830184610bee565b92915050565b7f4e487b7100000000000000000000000000000000000000000000000000000000600052603260045260246000fd5b7f4e487b7100000000000000000000000000000000000000000000000000000000600052601160045260246000fd5b6000610cb8826107b8565b91507fffffffffffffffffffffffffffffffffffffffffffffffffffffffffffffffff8203610cea57610ce9610c7e565b5b600182019050919050565b600081519050919050565b7f4e487b7100000000000000000000000000000000000000000000000000000000600052602260045260246000fd5b60006002820490506001821680610d4757607f821691505b602082108103610d5a57610d59610d00565b5b50919050565b60008190508160005260206000209050919050565b60006020601f8301049050919050565b600082821b905092915050565b600060088302610dc27fffffffffffffffffffffffffffffffffffffffffffffffffffffffffffffffff82610d85565b610dcc8683610d85565b95508019841693508086168417925050509392505050565b6000819050919050565b6000610e09610e04610dff846107b8565b610de4565b6107b8565b9050919050565b6000819050919050565b610e2383610dee565b610e37610e2f82610e10565b848454610d92565b825550505050565b600090565b610e4c610e3f565b610e57818484610e1a565b505050565b5b81811015610e7b57610e70600082610e44565b600181019050610e5d565b5050565b601f821115610ec057610e9181610d60565b610e9a84610d75565b81016020851015610ea9578190505b610ebd610eb585610d75565b830182610e5c565b50505b505050565b600082821c905092915050565b6000610ee360001984600802610ec5565b1980831691505092915050565b6000610efc8383610ed2565b9150826002028217905092915050565b610f1582610cf5565b67ffffffffffffffff811115610f2e57610f2d610883565b5b610f388254610d2f565b610f43828285610e7f565b600060209050601f831160018114610f765760008415610f64578287015190505b610f6e8582610ef0565b865550610fd6565b601f198416610f8486610d60565b60005b82811015610fac57848901518255600182019150602085019450602081019050610f87565b86831015610fc95784890151610fc5601f891682610ed2565b8355505b6001600288020188555050505b50505050505056fea26469706673582212207753dd9726214c08d408aaf965d80a1b47836e4d86ab98e53271d64fe81f610664736f6c63430008110033",
	"linkReferences": {},
	"deployedLinkReferences": {}
}